:020000040000FA
:1000000090270010250100002D0100002F010000A5
:10001000330100003501000037010000000001003D
:100020000000000000000000000000003901000096
:100030003B010000000000003D0100007D020000C7
:1000400041010000410100004101000041010000A8
:100050004101000041010000410100004101000098
:100060004101000041010000410100004101000088
:100070004101000041010000311800004101000071
:100080004101000041010000410100004101000068
:100090004101000041010000410100004101000058
:1000A0004101000041010000410100004101000048
:1000B0004101000041010000410100004101000038
:1000C0004101000041010000410100004101000028
:1000D0004101000041010000410100004101000018
:1000E00041010000DFF80CD005F032FA004800476B
:1000F0004D010000902700102DE9FC030022002391
:1001000000240025002600275FF000085FF00009AA
:100110004FEA5111A0E8FC030139FBD2BDE8FC0312
:10012000704700000748804707480047FEE7FEE7A2
:100130007047FEE7FEE7FEE7FEE7FEE7FEE7FEE7C5
:10014000FEE700009B050000E500000001F0B7FAA3
:1001500001F0AEFC04F018FE04F02AFE04F06CFE80
:1001600000F098FF00BFFEE7594800687047584A02
:100170001268111800BF564A12688A1A002AFADC5F
:10018000704770B501F0B8FB00F0BAF8514800684C
:100190004FF47A72B0FBF2F1481EB0F1807F00D3C9
:1001A00019E0481E4FF0E022506150171F2200282E
:1001B00006DAD300484C00F00F052D1F635502E00E
:1001C000D300464C235400BF00204FF0E022906142
:1001D0000720106100BF70BD7047704770477047BF
:1001E00070477047704701207047704770477047ED
:1001F0001CB501F0E9FB98B3684601F0EBFBBDF9D3
:10020000040037490860BDF90400B0F5FA5F03DC6B
:10021000BDF90400002807DC002032490870411EA7
:10022000084609F03DF81CBD2F48007810F0040F77
:1002300008D0BDF902002D490860BDF900002C4925
:10024000086007E0BDF9000028490860BDF9020018
:100250002749086001202349087008F06DFF0BE072
:10026000FFE720480078012806D100201D490870CA
:10027000411E084609F014F800BFD4E710B5144831
:100280000068401C124908601A4801780078401C38
:10029000184A10700A2906DB00201146087072B651
:1002A000FFF7A6FF62B6144801780078401C124A96
:1002B0001070322902D100201146087010BD70471D
:1002C00070470A4800687047094800687047000096
:1002D000280000100000001018ED00E000E400E02D
:1002E0002400001020000010340000102C0000102A
:1002F000300000102100001022000010FFFFFFFF5F
:10030000D348006810F4807F4FD1D248006810F0C5
:10031000010F1ED1CE48006800F01F00CE49B1FB8E
:10032000F0F0CE490860CE48D0F8A80100F01F00D8
:10033000C949B1FBF0F0CB490860CB48006800F038
:10034000010000F10100C449B1FBF0F0C7490860A9
:10035000B9E0C748006810F0400F07D10020BF493E
:100360000860C0490860C1490860ACE0B84800684E
:1003700000F01F00B849B1FBF0F0B8490860B84878
:10038000D0F8A80100F01F00B349B1FBF0F0B54967
:100390000860B548006800F0010000F10100AE49B6
:1003A000B1FBF0F0B14908608DE0B248006810F48C
:1003B000807F07D10020A9490860AA490860AB499D
:1003C000086080E0A348006810F0010F37D1A94809
:1003D000006800F01F0000F101009F4900FB01F0E0
:1003E0009F49D1F8041101F01F01B0FBF1F09B49C6
:1003F0000860A048006800F01F0000F10100964965
:1004000000FB01F09C49096801F01F01B0FBF1F00D
:10041000944908609748006800F01F0000F101004F
:100420008D4900FB01F08E49D1F8001101F0010166
:1004300001F10101B0FBF1F08C49086043E08C4808
:10044000006810F0400F07D10020844908608549FA
:1004500008608649086036E08648006800F01F00A2
:1004600000F101007C4900FB01F07D49D1F8041145
:1004700001F01F01B0FBF1F0784908607D48006889
:1004800000F01F0000F10100734900FB01F07A4900
:10049000096801F01F01B0FBF1F07249086075486E
:1004A000006800F01F0000F101006B4900FB01F043
:1004B0006B49D1F8001101F0010101F10101B0FB1C
:1004C000F1F06A4908606D48006810F4807F3ED002
:1004D0006A48006810F01F0004D0042806D00628DF
:1004E00030D104E00020664908602FE000BF594881
:1004F000006810F0010F12D05E48006800F01F0085
:1005000000F10100544900FB01F05549D1F80811F0
:1005100001F01F01B0FBF1F05949086011E05548A6
:10052000006800F01F0000F101004B4900FB01F0E2
:100530004B49D1F8081101F01F01B0FBF1F050490F
:10054000086003E000204E49086000BF24E04B48EB
:10055000006810F4007F1CD03E48006810F0010FC6
:100560000BD04848006800F01F0000F101003A4934
:1005700000FB01F0424908600EE03E48006800F0D0
:100580001F0000F10100344900FB01F03C49086004
:1005900002E000203A490860704721203449086091
:1005A00000BF3348006810F0400FFAD001202949FD
:1005B00008604FF009002A49C1F884004FF001009B
:1005C000314908604FF0AA00304908604FF05500EB
:1005D000086000BF2748006810F4806FFAD023201D
:1005E0002B4908604FF001001D49C1F8A0004FF0F1
:1005F000AA00284908604FF055001949C1F8AC001D
:1006000000BF2048006810F4806FFAD040F201105B
:100610000F4908604FF400701149C1F808014FF00C
:100620000100114908604FF00200134908601A48A0
:100630001A4908604FF480701949086045F23A0081
:10064000074908604FF00000164908607047000035
:1006500004C10F400CC10F40001BB7000000001088
:1006600000C00F400400001000C10F40080000103F
:10067000A0C10F4088C00F40A8C10F4008C10F4063
:100680000C000010A8C00F4080C00F408CC00F406D
:10069000A4C00F40ACC00F40DE87A804C4C00F4008
:1006A000C8C10F4008ED00E030B587B005460C46E4
:1006B00001A928460BF0F2FDBDF80400401E00B26F
:1006C000ADF80C00BDF80600401E00B2ADF80E00FB
:1006D000BDF80800401C00B2ADF81000BDF80E10C7
:1006E000ADF81210BDF81000ADF81400BDF80A0006
:1006F000401C01B2ADF81610BDF80C00ADF81800A2
:10070000BDF81610ADF81A10204608F068FB00235B
:100710001A46042103A807F0BBFB07B030BD70B533
:100720000646002465E004F60E0130460BF060FD3D
:100730000546F748005D08284DD2DFE800F0400488
:10074000104C34284C1CF349284605F065F8F2A1FA
:10075000284605F07EF828460BF0ACFC47E0ED4952
:10076000284605F059F8F1A1284605F072F8284608
:100770000BF0A0FC3BE0E749284605F04DF8F0A15E
:10078000284605F066F828460BF094FC2FE0E14976
:10079000284605F041F8EEA1284605F05AF828460B
:1007A0000BF088FC23E0DB49284605F035F8EAA188
:1007B000284605F04EF828460BF07CFC17E0E94986
:1007C000284605F029F8E8A1284605F042F8284611
:1007D0000BF05CFC0BE0E349284605F01DF8E6A1B0
:1007E000284605F036F828460BF050FC00BF00BF45
:1007F000641C102C97DB002432E004F61E01304606
:100800000BF0F6FC0546C24904F11000085C68B123
:100810000A2817D1BF49284604F0FEFFD9A128466F
:1008200005F017F828460BF045FC17E0CD4928469F
:1008300004F0F2FFD5A1284605F00BF828460BF08E
:1008400025FC0BE0C749284604F0E6FFD1A1284665
:1008500004F0FFFF28460BF019FC00BF00BF641C2A
:10086000022CCADB4FF4026130460BF0C1FC054696
:10087000A74904F11000085C68B10F2817D1A549F9
:10088000284604F0C9FFC4A1284604F0E2FF284628
:100890000BF010FC17E0B349284604F0BDFFBBA1E4
:1008A000284604F0D6FF28460BF0F0FB0BE0AD49DC
:1008B000284604F0B1FFB7A1284604F0CAFF284635
:1008C0000BF0E4FB00BF00BF70BD2DE9FF41054602
:1008D00028680F2804D01D2846D026287DD1B7E0EF
:1008E0004FF47F0008F07BFA4026331D4FF443722B
:1008F0003146142007F098FB40F2A916331D4FF43F
:1009000043723146142007F08FFB00221421A348C4
:1009100007F016FA40F2B3121421A14807F010FABA
:100920006868FFF7FCFE40F60E0168680BF060FC9B
:100930008046FF214046FFF7B7FE40F60F0168688A
:100940000BF056FC80464FF47F414046FFF7ACFE6B
:100950004FF4016168680BF04BFC80464FF6FF7165
:100960004046FFF7A1FE82E3002611E006F60E01E5
:1009700068680BF03DFC80467A49404604F04CFF25
:1009800079A1404604F065FF40460BF07FFB761CE2
:10099000102EEBDB40F6210168680BF029FC804645
:1009A00080A1404604F055FF40F6410168680BF015
:1009B0001FFC80460E2140460AF0E3FE4FF47F0103
:1009C00040460AF0F3FE7B4940460AF099FE7AA1C0
:1009D00040460AF0ACFE312000E044E38DF8000010
:1009E00000208DF801008DF8020000262DE006F5AC
:1009F000036168680BF0FCFB80466946404605F0E1
:100A00002BF9082E06D131208DF8000030208DF80A
:100A100001000EE0092E06DA9DF80000401CC0B26D
:100A20008DF8000005E09DF80100401CC0B28DF873
:100A300001000E21404605F074F93649404605F0A4
:100A4000F6F840460BF022FB761C102ECFDB0EE3AF
:100A5000A8680BF0FCFB0746EC68A7F60D003328EE
:100A60002DD2DFE800F01A2D41ABBFF5F3F2F1F023
:100A7000EFEEEDECEBEAE9E8E7E6E5E4E32C2C2C1D
:100A80002C2C2C2C2C2C2C2C2CE2E1E0DFDEDDDCC1
:100A9000DBDAD9D8D7D6D5D4D300012C02D0022C9A
:100AA0000CD100E00AE0686802F0B8FC80464046DD
:100AB0000BF08CFE404607F0A5FA00BF00BFD0E265
:100AC000012C02D0022C0DD100E00BE0002168685F
:100AD00002F0CFFA804640460BF078FE404607F021
:100AE00091FA00BF00BFBCE2012C02D0022C0DD154
:100AF00000E00BE00121686802F0BBFA8046404646
:100B00000BF064FE404607F07DFA00BF00BFA8E28C
:100B10006C03001008140200310D0A330D0A310D68
:100B20000A300D0A540D0A5800000000310D0A3534
:100B30000D0A350D0A300D0A540D0A580000000048
:100B4000520D0A430D0A560D0A7C0D0A5200000090
:100B5000520D0A430D0A5600450D0A440D0A460D72
:100B60000A4100004CF40100450D0A4D0D0A500DDC
:100B70000A540D0A590000000D0A550D0A4E0D0ABF
:100B80004B000000537570706C790000454D505457
:100B900059000000554E4B0046616E002494010040
:100BA000E85A0100436F6E66696775726174696F18
:100BB0006E0000006CC2010031380000012C02D030
:100BC000022C0DD100E00BE00221686802F051FA1E
:100BD000804640460BF0FAFD404607F013FA00BF8E
:100BE00000BF3EE2012C02D0022C0DD100E00BE050
:100BF0000321686802F03DFA804640460BF0E6FDAE
:100C0000404607F0FFF900BF00BF2AE21DE210E2F4
:100C100003E2F6E1E9E1DCE1CFE1C2E1B5E1A8E11F
:100C20009BE18EE181E174E167E15AE150E144E149
:100C30003AE125E110E1FBE0E6E0D1E0BCE0A7E02D
:100C400092E07DE068E053E03EE029E014E0FFE759
:100C5000012C02D0022C0DD100E00BE004216868C9
:100C600002F007FA804640460BF0B0FD404607F020
:100C7000C9F900BF00BFF4E1012C02D0022C0DD154
:100C800000E00BE00521686802F0F3F98046404679
:100C90000BF09CFD404607F0B5F900BF00BFE0E156
:100CA000012C02D0022C0DD100E00BE00621686877
:100CB00002F0DFF9804640460BF088FD404607F021
:100CC000A1F900BF00BFCCE1012C02D0022C0DD154
:100CD00000E00BE00721686802F0CBF9804640464F
:100CE0000BF074FD404607F08DF900BF00BFB8E17E
:100CF000012C02D0022C0DD100E00BE00821686825
:100D000002F0B7F9804640460BF060FD404607F020
:100D100079F900BF00BFA4E1012C02D0022C0DD153
:100D200000E00BE00921686802F0A3F98046404624
:100D30000BF04CFD404607F065F900BF00BF90E1A5
:100D4000012C02D0022C0DD100E00BE00A216868D2
:100D500002F08FF9804640460BF038FD404607F020
:100D600051F900BF00BF7CE1012C02D0022C0DD153
:100D700000E00BE00B21686802F07BF980464046FA
:100D80000BF024FD404607F03DF900BF00BF68E1CD
:100D9000012C02D0022C0DD100E00BE00C21686880
:100DA00002F067F9804640460BF010FD404607F020
:100DB00029F900BF00BF54E1012C02D0022C0DD153
:100DC00000E00BE00D21686802F053F980464046D0
:100DD0000BF0FCFC404607F015F900BF00BF40E1F6
:100DE000012C02D0022C0DD100E00BE00E2168682E
:100DF00002F03FF9804640460BF0E8FC404607F021
:100E000001F900BF00BF2CE1012C02D0022C0DD152
:100E100000E00BE00F21686802F02BF980464046A5
:100E20000BF0D4FC404607F0EDF800BF00BF18E11E
:100E3000012C02D0022C0DD100E00BE010216868DB
:100E400002F017F9804640460BF0C0FC404607F020
:100E5000D9F800BF00BF04E1012C02D0022C0DD153
:100E600000E00BE01121686802F003F9804640467B
:100E70000BF0ACFC404607F0C5F800BF00BFF0E047
:100E8000012C02D0022C0DD100E00BE01221686889
:100E900002F0EFF8804640460BF098FC404607F021
:100EA000B1F800BF00BFDCE0012C02D0022C02D15F
:100EB00000E000E000BF00BFD3E0012C02D0022C14
:100EC00004D100E002E002F0AFF800BF00BFC8E0CC
:100ED000012C02D0022C02D100E000E000BF00BFD4
:100EE000BFE0012C04D0022C03D0052C03D101E07B
:100EF00001E000E000BF00BFB3E0012C04D0022CF1
:100F000003D0052C03D101E001E000E000BF00BFE9
:100F1000A7E0012C04D0022C03D0052C03D101E062
:100F200001E000E000BF00BF9BE0012C04D0022CD8
:100F300003D0052C03D101E001E000E000BF00BFB9
:100F40008FE0012C04D0022C03D0052C03D101E04A
:100F500001E000E000BF00BF83E0012C04D0022CC0
:100F600003D0052C03D101E001E000E000BF00BF89
:100F700077E0012C04D0022C03D0052C03D101E032
:100F800001E000E000BF00BF6BE0012C04D0022CA8
:100F900003D0052C03D101E001E000E000BF00BF59
:100FA0005FE0012C04D0022C03D0052C03D101E01A
:100FB00001E000E000BF00BF53E0012C04D0022C90
:100FC00003D0052C03D101E001E000E000BF00BF29
:100FD00047E0012C04D0022C03D0052C03D101E002
:100FE00001E000E000BF00BF3BE0012C04D0022C78
:100FF00003D0052C03D101E001E000E000BF00BFF9
:101000002FE0012C04D0022C03D0052C03D101E0E9
:1010100001E000E000BF00BF23E0012C04D0022C5F
:1010200003D0052C03D101E001E000E000BF00BFC8
:1010300017E0012C04D0022C03D0052C03D101E0D1
:1010400001E000E000BF00BF0BE0012C04D0022C47
:1010500003D0052C03D101E001E000E000BF00BF98
:1010600000BF00BF03E028460AF068FF00BF00BFD2
:10107000BDE8FF817CB50BF0B5F805460020009077
:101080002B461F4A282101901E4806F0D9FB044632
:1010900020467CBD0BF0A6F805460AF0FAFF0420B6
:1010A0000BF088FD07F03AF9174804F0AFFBFFF7A3
:1010B000E1FF044622E04FF4FA7006F0C9FC204636
:1010C0000BF01CFB06F07AF91049086006F080F975
:1010D0000F4908600D4800680E490968884203D02E
:1010E0000A4800680B490860094800680A4909680D
:1010F000884203D00648006807490860DBE7000023
:10110000CB080000402D0100081402001000001060
:1011100014000010180000101C00001010B5064844
:101120000088054908804FF40001044806F07CF867
:10113000802006F0BFF910BD000000A0007017A0CD
:1011400001468548816000BF8348C06810F0040FE5
:10115000FAD081488068C0B270474FF02041072222
:101160007E4B1A607E4BC3F818217E4B1A6003F148
:1011700004031A6003F104031A607B4B1A6003F145
:1011800004031A6003F104031A6003F104031A60F4
:1011900003F104031A6003F104031A60734B1A602D
:1011A000734B1A6003F104031A6003F104031A601D
:1011B00003F104031A606F4B1A606F4B1A606F4B98
:1011C0001A606F4B1A6003F104031A604FF00002BB
:1011D0006C4B1A604FF020026B4B1A629A636B4A99
:1011E000D2F8C42042F00102684BC3F8C420684A18
:1011F000126822F00102664B1A604FF00002654B44
:101200009A611A46926922F00E029A611A46926910
:1012100042F00C029A611A46926942F020029A61E9
:101220001A46926922F080029A611A46926922F463
:1012300080729A611A46926922F400729A611A4683
:10124000926922F480629A611A46926922F40062DD
:101250009A61514A1268514BB2FBF3F2A2F10102BA
:101260004A4BC3F8B8214B4A926842F08062494B1E
:101270009A601A46926822F020029A601A46926892
:1012800042F400629A601A46926842F480529A6070
:101290001A46926822F400529A601A46926822F422
:1012A00080429A601A4692683D4B02EA0302394B2B
:1012B0009A601A4692683B4B42EA0302354B9A60A9
:1012C0004FF000021A601A46126842F0AE421A60ED
:1012D0001A4612681A601A46126842F400721A60BE
:1012E0001A46126842F0C4021A604FF000025A60B7
:1012F0001A46526842F000525A601A46526842F446
:1013000080325A601A46526842F400625A601A46A5
:10131000526840F2DF1342EA03021E4B5A600A464B
:101320001A615A611A46926942F001029A611A469C
:10133000926942F400629A614FF0000002E00022DC
:1013400004C1401C184A9042F9DB42F2107000E0E0
:10135000401E0028FCD170470080084074C2024043
:1013600000C002401CC10240D0C0024034C1024053
:10137000E8C0024008C1024000C1024014C102405E
:101380000CC1024004C102400080092000C00F408F
:10139000008C08200080082000000010E0285F0179
:1013A000FFFF00FC00001F0300DC050010B5FFF785
:1013B000D4FE10BD70477047704708B500231A4629
:1013C00039493A4806F0ACFA09F05AFB70B14FF4CB
:1013D00048724FF4F071002009F0DEFD4FF44872BE
:1013E0004FF4F071002009F001FE0DE04FF4F072AF
:1013F0004FF44871002009F0CFFD4FF4F0724FF424
:101400004871002009F0F2FD4FF02041002009F062
:10141000D9FD0020264908600846006807F03AFF19
:1014200040F6395040F20F2340F21F320021009065
:10143000084607F02DFE40F2EE2040F67C4340F2D5
:10144000DF1200210090012007F022FE08BD2DE9E7
:10145000F04180460D461446012D06D0022D09D0DC
:10146000032D0DD0042D19D111E0FFF79FFF0020AF
:10147000BDE8F08127463868FFF79CFF0020F7E7BA
:101480002746D7E90001FFF796FF0020F0E727463F
:1014900039793868FFF790FF0020E9E74FF0FF3611
:1014A00000BF00BF3046E3E7389401002C1402006F
:1014B0003400001002214FF0402251600021D16021
:1014C000CA49096801F01F01C94A1268B2FBF1F16B
:1014D0004FF47A72B1FBF2F1A1F1010101FB00F1CD
:1014E0004FF0402291614FF0FF0111604FF0040175
:1014F00051614FF00101516000BF4FF04021496838
:1015000011F0010FF9D1704740F20120B94908608C
:10151000B949C1F88401B949086001F104010860C2
:1015200001F10401086001F10401086001F1040106
:10153000086001F10401086001F10401086001F193
:101540000401086001F10401086001F10401086070
:1015500001F10401086001F10401086001F10401D6
:10156000086001F10401086001F10401086001F163
:101570000401086001F10401086001F10401086040
:1015800001F10401086001F10401086001F10401A6
:10159000086001F10401086001F10401086001F133
:1015A0000401086001F10401086001F10401086010
:1015B00001F10401086001F10401086001F1040176
:1015C000086001F10401086001F10401086001F103
:1015D0000401086001F10401086001F104010860E0
:1015E00001F10401086001F10401086001F1040146
:1015F000086001F10401086001F10401086001F1D3
:101600000401086001F10401086001F104010860AF
:1016100001F10401086001F10401086001F1040115
:10162000086001F10401086001F10401086001F1A2
:101630000401086001F10401086001F1040108607F
:1016400001F10401086001F10401086001F10401E5
:10165000086001F10401086069490860A1F1040112
:101660000860684908606849086001F10401086081
:1016700001F10401086001F10401086001F10401B5
:10168000086001F10401086001F10401086001F142
:101690000401086001F1040108605C49086001F17F
:1016A0000401086001F10401086001F1040108600F
:1016B00001F1040108605049C1F87C0170472DE92F
:1016C000F04100BF00BF5248006840F4006051493B
:1016D000C1F8C40041F210004F4908604FF001000A
:1016E0004E4908604FF000008860FFF70DFF40484A
:1016F00000684B49B0FBF1F74648D0F8000100B153
:101700007F084FF47A70B0FBF7F404F11300B0FBDC
:10171000F4F0424908630F204863002088630120E9
:10172000C86304F11300B0FBF4F0801C08640120CE
:10173000486404F13E00B0FBF4F0886404F13E001C
:10174000B0FBF4F0C8640F20086504F13E00B0FB64
:10175000F4F0486501208865886240F20330314921
:1017600008604FF48D402D49C1F800014FF064002E
:10177000FFF7A0FE40F2831028490862C820FFF757
:1017800099FE40F2031025490862022048620026B3
:1017900000E0761C802EFCD341F68465A5F1100094
:1017A00085B22D1105FB07F04FF47A71B0FBF1F013
:1017B00085B21A4845628320184908621A48D0F851
:1017C0000080002008621948006840F40020C1F839
:1017D00000014FF00100FFF76DFE4FF080614FF008
:1017E0002040FEF789FCBDE8F0810000A8C10F4051
:1017F0000000001080C1024000C0024088C10240C9
:1018000064C2024078C2024040C1024068C1024046
:10181000C4C00F4000C00F40DCC10F4000C0092011
:1018200040420F0004C10920004006A000C1092069
:101830009249C86910F0010F07D091490968491C05
:101840008F4A116001218D4A116210F0020F07D0FA
:101850008C490968491C8B4A11600221874A116230
:1018600010F0040F04D088490968491C864A1160A9
:10187000704710B50246854BDB6D43F40003834C83
:10188000E36500BF7D4BDB6803F01203022BF9D147
:101890007A4B9A6000BF794BDB6803F01403042B8A
:1018A000F9D1764B9B68D9B20023744CA36000BF7A
:1018B000724BDB6803F01403042BF9D16F4B9B6868
:1018C000D9B200236D4CA36001F07F03194618467E
:1018D000400100BF694BDB6803F01403042BF9D10E
:1018E000664B9B68D9B240EAE100684B9B6D43F4BC
:1018F0000003664CA36510BD30B500BF64480068A6
:1019000040F40010634BC3F8C4006348D0F858019A
:1019100020F00700604BC3F858011846D0F8580172
:1019200040F00200C3F858011846D0F8680120F0D2
:101930000700C3F868011846D0F8680140F00200BB
:10194000C3F868011846D0F86C0120F00700C3F80E
:101950006C011846D0F86C0140F00200C3F86C012D
:101960001846D0F85C0120F00700C3F85C01474836
:10197000006C40F40000454B18641846806D40F43C
:101980000000986541F607703C4B18604FF002006C
:1019900018614FF0000103E038488068C2B2491C6A
:1019A0000829F9DB0E200123834044094FF0E0258C
:1019B00005EB8404C4F8003100BF03202F4B5861AD
:1019C00002205860002030BD3048406D012121EADE
:1019D000D0207047F0B504469220FFF74AFF00B2CE
:1019E0006080012507E09220FFF743FF61880844EB
:1019F00000B260806D1C082DF5DBB4F90200C11740
:101A000000EB5171C9106180D220FFF732FF00B2A4
:101A10002080012507E0D220FFF72BFF2188084412
:101A200000B220806D1C082DF5DBB4F90000C11751
:101A300000EB5171C9102180B220FFF71AFF064652
:101A4000C220FFF716FF0746B4F9000013490860EB
:101A5000B4F9020012490860124806601248076093
:101A6000B4F90000B91B484390FBF6F000B2A08027
:101A7000B4F904000D4908600020F0BD0080084062
:101A80003C000010400000103800001000800920C9
:101A9000C4C00F4000C00F4000C00240440000100E
:101AA0004800001050000010540000104C000010BE
:101AB00040F20120464908604649C1F86C02464997
:101AC00008604FF08100454908604FF0000001F1C7
:101AD0000401086001F1040108604FF0060001F103
:101AE000040108604FF0000001F1040108604FF0AC
:101AF000050001F1040108604FF000003849C1F809
:101B00003802704710B504464FF0104040EA4402D6
:101B1000108800F0400300BF118801F04000984297
:101B200001D1002010BD01F0400311F0200FF3D0CF
:101B3000108800F04003118801F04000984201D164
:101B40000020EFE70120EDE7034600224FF01040B0
:101B500040EA43019020088022490A8812F0010FD0
:101B60000FD001066020088000BFD020088006E06A
:101B70001C49891E0A8812F0800F00D000E0F7E7A8
:101B800000BF4FF0104120200880D0200880702036
:101B900008800A8802E0702008800A8812F0800F0E
:101BA000F9D00120704770B505460E460E4CAA20AC
:101BB00020800E4C552020800B4CA02020804FF020
:101BC000104040EA450426802846FFF79BFF70BD81
:101BD00060C2024000C002407CC2024020C2092014
:101BE00000C0092006000090AA0A00905405009049
:101BF0002DE9F04192B0044620680F2804D01D283A
:101C00001BD026287ED16EE34FF47F0007F0E7F863
:101C10004FF0320808F104034FF443724146142098
:101C200006F002FA40F2A91808F104034FF44372D7
:101C30004146142006F0F8F954E340F601116068BB
:101C40000AF0D6FA0646FD49304609F059FDFC482F
:101C50000268521CFBA102A810F06EFB02A93046DC
:101C600009F065FD40F6031160680AF0C1FA064606
:101C7000FCA1304609F05BFD0C21304609F081FDE6
:101C8000EE49304609F03CFD40F6041160680AF068
:101C9000AFFA06460C21304609F073FDE74930469D
:101CA00009F02EFDF3A1304609F041FD40F6051183
:101CB00060680AF09DFA06460C21304609F061FD85
:101CC000DE49304609F01CFDEEA1304609F02FFD3B
:101CD00040F6061160680AF08BFA06460C21304681
:101CE00009F04FFDD549304609F00AFDE9A130461B
:101CF00009F01DFD40F6071160680AF079FA064602
:101D00000C2100E0FEE3304609F03BFDCB493046B4
:101D100009F0F6FCE2A1304609F009FD40F60D118C
:101D200060680AF065FA0646C449304609F0E8FCE6
:101D30000C21304609F025FDDDA1304609F0F7FC05
:101D400040F6081160680AF053FA0646BB4930466F
:101D500009F0D6FC0C21304609F013FDD7A130461E
:101D600009F0E5FC40F6091160680AF041FA064600
:101D7000B249304609F0C4FC0C21304609F001FD9F
:101D8000D0A1304609F0D3FC40F60A1160680AF091
:101D90002FFA0646A949304609F0B2FC0C2130461C
:101DA00009F0EFFC0021304609F000FDC7A13046E4
:101DB00009F0BDFC40F60B1160680AF019FA0646FE
:101DC0009E49304609F09CFC0C21304609F0D9FCB4
:101DD000C0A1304609F0ABFC40F60C1160680AF077
:101DE00007FA06469549304609F08AFC0C21304630
:101DF00009F0C7FCB9A1304609F099FC40F60E1174
:101E000060680AF0F5F906468C49304609F078FC1E
:101E10000C21304609F0B5FCB2A1304609F087FC30
:101E200040F62D1160680AF0E3F906468349304612
:101E300003F0F2FCADA1304603F00BFD4FF47F42FE
:101E40000021304603F0C8FC40F62E1160680AF00D
:101E5000CFF90646A7A1304603F0FBFC7749304690
:101E600003F0DAFC4FF6FF720021304603F0B4FCB9
:101E700040F62F1160680AF0BBF906469DA1304676
:101E800003F0E7FC6D49304603F0C6FC4FF6FF72E5
:101E90000021304603F0A0FC4FF4136160680AF0A3
:101EA000A7F906466549304603F0B6FC8FA13046D7
:101EB00003F0CFFC4FF47F420021304603F08CFC4E
:101EC00040F6311160680AF093F906465B493046E6
:101ED00003F0A2FC89A1304603F0BBFC89480068EE
:101EE000012855D140F60F1160680AF081F90646C5
:101EF0005249304609F004FC0C21304609F041FCFF
:101F000081A1304609F013FC4FF4116160680AF0BA
:101F10006FF906464949304609F0F2FB0C2130467C
:101F200009F02FFC7BA1304609F001FC40F61111AD
:101F300060680AF05DF906464049304609F0E0FB6A
:101F40000C21304609F01DFC74A1304609F0EFFB6E
:101F500040F6121160680AF04BF9064637493046E0
:101F600009F0CEFB0C21304609F00BFC6FA1304686
:101F700009F0DDFB40F6321160680AF039F90646D7
:101F80002E49304603F048FC6AA1304603F061FC5C
:101F90005C480068022850D140F6331160680AF0AE
:101FA00027F906462549304603F036FC63A1304642
:101FB00003F04FFC40F6131160680AF019F9064669
:101FC0000C21304609F0DDFB1C49304609F098FB36
:101FD0005CA1304609F0ABFB40F6141160680AF0D2
:101FE00007F906460C21304609F0CBFB1349304671
:101FF00009F086FB56A1304609F099FB40F6151111
:1020000060680AF0F5F806460C21304609F0B9FB85
:102010000A49304609F074FB50A1304609F087FBAD
:1020200040F6161160680AF0E3F806460C213046C7
:1020300009F0A7FB0149304694E053E1081402007F
:1020400060000010506C6174666F726D2043202F29
:1020500020536C6F742025643A2031353530545844
:10206000000000004E6F6D696E616C20506F7765E7
:10207000723A00004F757470757420506F776572F6
:102080003A000000426961732043757272656E7494
:102090003A0000004C617365722054656D703A001F
:1020A0005445432043757272656E743A0000000017
:1020B000496E70757420506F776572003131206DF4
:1020C0005700000031312E34206D57003237204345
:1020D0000000000035302E35206D410031323520B2
:1020E0006D41000038322064427556004E6F726DAB
:1020F000616C00005761726E696E67004D6F7265AA
:102100002E2E2E00580000104472697665204C6512
:1021100076656C00363020644275560057617665EE
:10212000204C656E6774683A00000000313331302E
:10213000206E6D004E657874000000004C61737471
:1021400000000000414743204C6576656C3A000072
:102150004368616E6E656C733A0000004761696E9A
:102160003A00000009F0CCFAF7A1304609F0DFFA96
:1021700040F6171160680AF03BF80646F44930460D
:1021800009F0BEFA0C21304609F0FBFAF1A1304605
:1021900009F0CDFA40F6181160680AF029F80646F1
:1021A000EB49304609F0ACFA0C21304609F0E9FA67
:1021B000EAA1304609F0BBFA40F6191160680AF04E
:1021C00017F80646E9A1304609F0B1FAE049304671
:1021D00009F096FA0C21304609F0D3FA4FF4126157
:1021E00060680AF005F806460C21304609F0C9FA85
:1021F000D749304609F084FAE3A1304609F097FA4E
:1022000040F62111606809F0F3FF0646D0493046D8
:1022100009F076FA0C21304609F0B3FADDA1304618
:1022200009F085FA40F62211606809F0E1FF0646E0
:102230000C21304609F0A5FAC549304609F060FA8C
:10224000D8A1304609F073FA4FF41461606809F0C0
:10225000CFFF0646D7A1304603F0FBFABC49304613
:1022600003F0DAFA40F64111606809F0C1FF064652
:10227000B749304603F0D0FACFA1304603F0E9FA6F
:1022800040F64211606809F0B3FF0646B049304697
:1022900003F0C2FAAFF29811304603F0DAFA40F6D2
:1022A0004311606809F0A4FF0646A949304603F0CF
:1022B000B3FAAFF2B411304603F0CBFA40F6451151
:1022C000606809F095FF0646A149304609F0EBF831
:1022D0000022BBA1304609F001F90122B9A1304624
:1022E00009F0FCF8B9E1A06809F0B1FF0746E5681C
:1022F00040F63211781A8F4271D016DC40F62E115A
:10230000A7EB01008F4249D008DC012F1CD0022F1F
:102310001BD0A7F510602D3823D123E0012859D018
:10232000022879D00328F7D192E0102870D006DC7B
:1023300001286ED00E286DD00F28EDD1F6E01128BF
:1023400069D01328E8D176E100BF012D02D0022D1B
:1023500006D100E004E00021606805F021FE00BF26
:1023600000BF74E1012D02D0022D15D100E013E071
:10237000142295A102A802F0A9FD002396496068E5
:102380000A6802A901F05BFF064630460AF01EFA11
:10239000304605F037FE00BF00BF58E1012D02D0E6
:1023A000022D15D100E013E014228CA102A802F046
:1023B0008DFD0123884960680A6802A901F03FFF8A
:1023C000064630460AF002FA304605F01BFE00BF12
:1023D00000BF3CE1012D03D0022D16D101E058E0F1
:1023E00013E0142281A102A802F070FD02237A49B1
:1023F00060680A6802A901F022FF064630460AF02A
:10240000E5F9304605F0FEFD00BF00BF1FE103E027
:1024100095E05FE081E005E1012D02D0022D15D1AC
:1024200000E013E0142274A102A802F04FFD032380
:10243000694960680A6802A901F001FF0646304652
:102440000AF0C4F9304605F0DDFD00BF00BFFEE034
:10245000012D02D0022D1AD100E018E000216068A1
:1024600005F09EFD01206749086000200090019062
:102470006548664A18210368654805F0E1F9064693
:1024800030460AF0A3F9304605F0BCFD00BF00BF9E
:10249000DDE0012D02D0022D1AD100E018E000216C
:1024A000606805F07DFD022056490860002000901C
:1024B00001905548554A13210368564805F0C0F964
:1024C000064630460AF082F9304605F09BFD00BF13
:1024D00000BFBCE0012D02D0022D1CD100E01AE0AB
:1024E0000021606805F05CFD01204649086000207D
:1024F000009001904448454A18210368444805F07B
:102500009FF900E0A5E0064630460AF05FF9304644
:1025100005F078FD00BF00BF99E0012D02D0022D2B
:1025200002D100E000E000BF00BF90E0012D02D02A
:10253000022D02D100E000E000BF00BF87E0012DC6
:102540006CD0022D6CD16AE048656C703A000000D6
:10255000081402003830206442755600323031339E
:10256000303931323537333300000000526573742F
:102570006F72652064656661756C74207365747430
:10258000696E67733A00000053657269616C4E753D
:102590006D3A00004657313230313341312D3132FE
:1025A000303100004669726D776172652052657640
:1025B0003A00000036300000313030644200000044
:1025C000414743004D4743004F7574707574205068
:1025D0006F7765720000000060000010426961734F
:1025E0002043757272656E74000000004C61736563
:1025F000722054656D70000054454320437572721B
:10260000656E7400580000105C000010F11B0000A3
:10261000983301003836010000E001E000E000BF1F
:1026200000BF14E0012D02D0022D02D100E000E035
:1026300000BF00BF0BE0012D04D0022D03D0052DFB
:1026400003D101E001E000E000BF00BF00BF00BF18
:1026500003E0204609F072FC00BF00BF12B0BDE8E5
:10266000F0817CB504460D460948046009480560C0
:10267000002000902346084A12210190074805F0E7
:10268000DFF8064600200649086030467CBD0000A1
:102690005C00001060000010F11B0000A031010080
:1026A000580000102DE9F04192B0044620680F2830
:1026B00004D01D2870D026286FD175E34FF47F0019
:1026C00006F08DFB4FF0320808F104034FF443721B
:1026D0004146142005F0A8FC40F2A91808F10403B3
:1026E0004FF443724146142005F09EFCFD480068FB
:1026F00018B1FC48006801285AD140F608116068FA
:1027000009F076FD06460A22F7A102A80FF014FE92
:1027100002A9304609F00BF840F60911606809F08B
:1027200067FD0646F2480068B0F95820EEA102A8FD
:102730000FF002FE02A9304608F0F9FF40F60A1138
:10274000606809F055FD0646E9480068E9A1026A9B
:1027500002A80FF0F1FD02A9304608F0E8FF40F6AC
:102760000B11606809F044FD06460122E3A102A8AE
:102770000FF0E2FD02A9304608F0D9FF40F60C1137
:10278000606809F035FD0646D9480068B0F8500089
:10279000012803D1DBA002E010E0D5E3DAA0024675
:1027A000DAA102A80FF0C8FD02A9304608F0BFFF69
:1027B000CC480068012800D000BFC9E3C9480068C0
:1027C00018B1C848006801287DD140F60111606841
:1027D00009F00EFD0646CE49304608F091FFCD487F
:1027E0000268521CCCA102A80FF0A6FD02A9304637
:1027F00008F09DFF40F60211606809F0F9FC0646FA
:10280000CCA1304608F093FF0C21304608F0B9FF08
:10281000BF49304608F074FF40F60311606809F0C4
:10282000E7FC06460C21304608F0ABFFB8493046BD
:1028300008F066FFC3A1304608F079FF40F60411A6
:10284000606809F0D5FC06460C21304608F099FF77
:10285000AF49304608F054FFBEA1304608F067FF8C
:1028600040F60511606809F0C3FC06460C213046AD
:1028700008F087FFA649304608F042FFB8A130466D
:1028800008F055FF40F60711606809F0B1FC0646F4
:102890000C21304608F075FF9D49304608F030FFA6
:1028A000B2A1304608F043FF40F60811606809F015
:1028B0009FFC06469649304608F022FF0C21304620
:1028C00008F05FFF00E04FE0ABA1304608F02FFFBB
:1028D00040F60911606809F08BFC06468C493046C9
:1028E00008F00EFF0C21304608F04BFFA4A1304643
:1028F00008F01DFF40F60A11606809F079FC0646F1
:102900008349304608F0FCFE0C21304608F039FFC0
:102910000021304608F04AFF9BA1304608F007FF2F
:1029200040F60B11606809F063FC064678493046B2
:1029300008F0E6FE0C21304608F023FF94A1304653
:1029400008F0F5FE40F60C11606809F051FC0646EF
:102950006F49304608F0D4FE0C21304608F011FFD4
:1029600068A1304608F0E3FE5E48006801285FD1A8
:1029700040F60D11606809F03BFC0646644930469C
:1029800008F0BEFE0C21304608F0FBFE82A1304666
:1029900008F0CDFE40F60E11606809F029FC0646ED
:1029A0005B49304608F0ACFE0C21304608F0E9FEE9
:1029B0007DA1304608F0BBFE40F60F11606809F0BB
:1029C00017FC06465249304608F09AFE0C21304664
:1029D00008F0D7FE76A1304608F0A9FE40F60121A6
:1029E000606809F005FC06464949304602F014FFCC
:1029F00070A1304602F02DFF40F60221606809F018
:102A0000F7FB06464249304602F006FF6AA130460F
:102A100002F01FFF40F60321606809F0E9FB06465B
:102A20003B49304602F0F8FE57A1304602F011FF54
:102A30002C480068022854D14FF41161606809F0F5
:102A4000D7FB06463249304608F05AFE0C21304684
:102A500008F097FE59A1304608F069FE40F61111C2
:102A6000606809F0C5FB06462949304608F048FE73
:102A70000C21304608F085FE54A1304608F057FE80
:102A800040F61211606809F0B3FB06462049304653
:102A900008F036FE0C21304608F073FE4FA1304698
:102AA00008F045FE40F61311606809F0A1FB0646E8
:102AB0001749304608F024FE0C21304608F061FE2C
:102AC0004AA1304608F033FE40F61411606809F060
:102AD0008FFB06460E49304608F012FE0C213046A8
:102AE00088E044E1640000102564206D5700000078
:102AF000700000102564206E6D00000025642064C5
:102B000042000000414743004D4743002573000049
:102B10000814020068000010506C6174666F726DDA
:102B20002043202F20536C6F742025643A20524399
:102B3000560000004E6F6D696E616C20506F7765B6
:102B4000723A00004F757470757420506F7765721B
:102B50003A00000057617665204C656E6774680026
:102B60004F7574707574204174743A004147432F57
:102B70004D47433A000000003131206D57000000FE
:102B800031312E34206D57003220644200000000A5
:102B900031333130206E6D004F7574707574205371
:102BA00077697463683A00003353746174653A005E
:102BB00045513A004F6E0000310000004F757470AF
:102BC000757420426961733A00000000414220534D
:102BD000772053746174653A00000000414220532D
:102BE0007720436F6E74726F6C3A000048656C70AA
:102BF0003A00000008F0C5FDE3A1304608F097FD5B
:102C000040F61511606809F0F3FA0646E3493046CC
:102C100008F076FD0C21304608F0B3FDE0A1304607
:102C200008F085FD40F61611606809F0E1FA0646E5
:102C3000DA49304608F064FD0C21304608F0A1FD69
:102C4000DAA1304608F073FD40F61711606809F00C
:102C5000CFFA0646D149304608F052FD0C213046E5
:102C600008F08FFDD5A1304608F061FD40F618113F
:102C7000606809F0BDFA0646C849304608F040FDD4
:102C80000C21304608F07DFDAFF2D801304608F047
:102C90004EFD40F61911606809F0AAFA0646BF49D0
:102CA000304608F02DFD0C21304608F06AFDC7A122
:102CB000304608F03CFD4FF41261606809F098FA64
:102CC0000646B649304608F01BFD0C21304608F098
:102CD00058FDC1A1304608F02AFD40F62111606878
:102CE00009F086FA0646AD49304608F009FD0C2188
:102CF000304608F046FDBAA1304608F018FD40F60F
:102D00000421606809F074FA0646A449304602F0CE
:102D100083FDB7A1304602F09CFD40F605216068B6
:102D200009F066FA06469D49304602F075FDB0A1ED
:102D3000304602F08EFD40F60621606809F058FA30
:102D400006469649304602F067FDA9A1304602F0DA
:102D500080FD40F60721606809F04AFA06468F496F
:102D6000304602F059FDA2A1304602F072FD4FF448
:102D70002061606809F03CFA06468849304602F056
:102D80004BFD9CA1304602F064FD40F6FD116068E9
:102D900009F02EFA06468149304602F03DFD97A122
:102DA000304602F056FDD3E0A06809F050FA07461D
:102DB000E56840F60121781A8F4233D014DC40F6E2
:102DC000FE11A7EB01008F4259D008DC012F12D071
:102DD000022F11D0A7F51060FD3819D194E0012819
:102DE0006BD00228F9D114E0062811D2DFE800F0F8
:102DF000AA232C353E8300BF012D02D0022D06D11F
:102E000000E004E00021606805F0CAF800BF00BFE0
:102E100098E0012D02D0022D02D100E000E000BFB9
:102E200000BF8FE0012D02D0022D02D100E000E0B2
:102E300000BF00BF86E0012D02D0022D02D100E0CC
:102E400000E000BF00BF7DE0012D02D0022D02D1C5
:102E500000E000E000BF00BF74E0012D02D0022DB1
:102E600002D100E000E000BF00BF6BE0012D02D006
:102E7000022D02D100E000E000BF00BF62E0012DA2
:102E800002D0022D17D100E015E00021606805F0A6
:102E900087F802205B4908600020009001905A48A2
:102EA0005A4A142103685A4804F0CAFC06463046C0
:102EB00005F0A8F800BF00BF44E0012D02D0022DAC
:102EC00017D100E015E00021606805F069F80120E5
:102ED0004C4908600020009001904B484B4A152156
:102EE00003684C4804F0ACFC0646304605F08AF80E
:102EF00000BF00BF26E0012D02D0022D02D100E06C
:102F000000E000BF00BF1DE0012D02D0022D17D14F
:102F100000E015E00021606805F042F80120394921
:102F200008600020009001903748384A1521036856
:102F3000384804F085FC0646304605F063F800BFCB
:102F400000BF00BF00BF03E0204608F0F7FF00BF4E
:102F500000BF12B0BDE8F0817CB504460D462A489A
:102F600004602D4805600020264908600090234633
:102F7000264A0F210190294804F062FC06462848A1
:102F80002849086030467CBD526573746F726520B5
:102F900044656661756C743A000000000814020014
:102FA00053657269616C204E756D3A0048617264B8
:102FB00077617265205265763A0000004669726D4D
:102FC00077617265205265763A0000003230313305
:102FD000303030310000000056312E30000000004B
:102FE00046573133303031412D3133393100000013
:102FF0002E2E2E004E6F726D616C00004D6F72654B
:103000002E2E2E00640000106C000010A52600007B
:103010003C3C0100F0390100680000104C38010010
:10302000800400107000001001202C49087002205C
:103030004870012088700220C870FF2008710520A8
:1030400048718871FF20C8710720087204204872F7
:1030500088720220C8720520087300204873FF2080
:1030600088730220C8730A20087448740F2088747B
:10307000704770B505460C461848005D052814D009
:1030800006DC01280BD002280AD0042822D11CE03B
:1030900007280BD00A280ED00F281BD110E000BF44
:1030A00021462846FFF7DDFA15E000BF21462846F5
:1030B000FFF752FF0FE02146284600F01CFF0AE010
:1030C0002146284600F07BFB05E02146284601F01A
:1030D0000CFE00BF00BF00BF70BD00006C030010FD
:1030E0002DE9F04190B0044620680F2804D01D2837
:1030F0002AD026287DD150E14FF47F0005F06FFEE5
:1031000032273B1D4FF443723946142004F08CFFE4
:1031100040F2A9173B1D4FF443723946142004F0C6
:1031200083FF40F60B01606809F062F88046C448EE
:103130000068B0F90820C3A168460FF0FDF86946A1
:10314000404608F0F4FA65E140F60101606809F0D4
:103150004FF88046BD49404608F0D2FABCA1684607
:103160000FF0EAF86946404608F0E1FA40F602013D
:10317000606809F03DF88046BCA1404608F0D7FAE7
:103180000C21404608F0FDFAB049404608F0B8FA74
:1031900040F60301606809F02BF880460C21404698
:1031A00008F0EFFAA949404608F0AAFAB1A1404652
:1031B00008F0BDFA40F60401606809F019F880468D
:1031C0000C21404608F0DDFAA049404608F098FA84
:1031D000AAA1404608F0ABFA40F60501606809F084
:1031E00007F880460C21404608F0CBFA9749404644
:1031F00000E00BE108F084FAA4A1404608F097FA39
:1032000040F60701606808F0F3FF80460C21404655
:1032100008F0B7FA8D49404608F072FA9FA140467F
:1032200008F085FA40F60801606808F0E1FF804682
:103230008649404608F064FA0C21404608F0A1FA9D
:103240009AA1404608F073FA40F60901606808F058
:10325000CFFF80467D49404608F052FA0C21404697
:1032600008F08FFA94A1404608F061FA40F60A018E
:10327000606808F0BDFF80467449404608F040FA97
:103280000C21404608F07DFA0021404608F08EFAF5
:103290008CA1404608F04BFA40F60B01606808F03C
:1032A000A7FF80466949404608F02AFA0C214046AB
:1032B00008F067FA86A1404608F039FA40F60E0198
:1032C000606808F095FF80466049404608F018FAAB
:1032D0000C21404608F055FA7EA1404608F027FA36
:1032E00040F60D01606808F083FF80467DA14046EE
:1032F00002F0AFFA5549404602F08EFA4FF47F4291
:103300000021404602F068FA40F60F01606808F0BC
:103310006FFF804675A1404608F009FA4B494046C8
:1033200008F0EEF90C21404608F02BFA4FF4016149
:10333000606808F05DFF80460C21404608F021FAE5
:103340004249404608F0DCF96CA1404608F0EFF92C
:1033500040F61101606808F04BFF80463B4940464B
:1033600008F0CEF90C21404608F00BFA66A1404661
:1033700008F0DDF940F61201606808F039FF804678
:103380000C21404608F0FDF93049404608F0B8F9F4
:103390005FA1404608F0CBF93CE0A06808F057FF79
:1033A0000546E668012D06D0022D05D0A5F5006082
:1033B0000D3829D10DE000BF012E02D0022E06D11A
:1033C00000E004E00021606804F0EAFD00BF00BFF7
:1033D0001AE0012E02D0022E14D100E012E01422D5
:1033E0004EA1684601F072FD00235A1E69466068CE
:1033F00000F025FF8046404609F0E8F9404604F019
:1034000001FE00BF00BF00BF00BF03E0204608F080
:1034100095FD00BF00BF10B0BDE8F0817CB504464B
:103420004148074908600020009023463F4A122186
:1034300001903F4804F004FA054628467CBD000090
:1034400074000010256420430000000008140200EE
:10345000506C6174666F726D2043202F20496E6638
:103460006F726D6174696F6E000000004E616D6572
:103470003A0000004D6F64656C3A000054656D7051
:10348000657261747572653A00000000486172648B
:1034900077617265205265763A0000004669726D68
:1034A00077617265205265763A000000506C617455
:1034B000666F726D204300004E484E4F50504634A8
:1034C000300000003039303133412D313233330098
:1034D000323743004657313230313341312D3132AA
:1034E000343500004E6F726D616C0000536F66746E
:1034F00077617265205265763A0000005365726903
:10350000616C4E756D3A000056342E340000000098
:1035100032303133303030303100000054656D705E
:10352000657261747572650080030010E1300000FF
:103530006C3E01002DE9F04192B0054628680F2845
:1035400004D01D2852D026287ED1CCE04FF47F0035
:1035500005F045FC3224231D4FF44372214614200C
:1035600004F062FD40F2A914231D4FF4437221467A
:10357000142004F059FD9E480068012818D1002449
:1035800014E041F20A32A118686808F031FE0646DC
:10359000984800682E3030F9142097A102A80EF048
:1035A000CBFE02A9304608F0C2F8641C082CE8DB08
:1035B0008F480068022818D1002414E041F21A3222
:1035C000A118686808F014FE06468A4800683E3074
:1035D00030F914208AA102A80EF0AEFE02A93046EE
:1035E00008F0A5F8641C082CE8DBE4E041F20131A6
:1035F000686808F0FDFD06468349304608F080F80B
:1036000082A102A80EF098FE02A9304608F08FF8B9
:1036100077480068012831D100242DE041F20232C0
:10362000A118686808F0E4FD0646621C7CA102A8A7
:103630000EF082FE02A9304608F079F80C213046DF
:1036400008F09FF8704900E0B1E0304608F058F803
:1036500041F20A32A118686808F0CAFD064674A152
:10366000304608F064F80C21304608F08AF86649C4
:10367000304608F045F8641C082CCFDB5C48006835
:1036800002282FD100242BE041F21232A1186868E1
:1036900008F0AEFD0646621C67A102A80EF04CFEC3
:1036A00002A9304608F043F80C21304608F069F8CA
:1036B0005549304608F024F841F21A32A1186868DA
:1036C00008F096FD064661A1304608F030F80C215E
:1036D000304608F056F84C49304608F011F8641CA2
:1036E000082CD1DB67E0A86808F0B1FD8046EF68E0
:1036F000B8F1010F09D0B8F1020F07D0A8F5985022
:10370000303810D0012850D12EE000BF012F02D058
:10371000022F06D100E004E00021686804F040FCBC
:1037200000BF00BF41E0012F02D0022F1AD100E0FC
:1037300018E00021686804F033FC02202C4908607E
:103740000020009001904348434A142103684348F5
:1037500004F076F80646304609F038F8304604F0B2
:1037600051FC00BF00BF20E0012F02D0022F1AD170
:1037700000E018E00021686804F012FC01201C49F8
:1037800008600020009001903248334A14210368F9
:10379000334804F055F80646304609F017F830462D
:1037A00004F030FC00BF00BF00BF00BF03E02846AC
:1037B00008F0C4FB00BF00BF12B0BDE8F0817CB5CB
:1037C00004460D4623480460264805600120084948
:1037D00008602548074908600020009023461E4ADB
:1037E000142101901E4804F02BF8064630467CBD9B
:1037F0007C0000108000001025642052504D000015
:103800002564206D4100000008140200506C6174B2
:10381000666F726D2043202F2046616E000000000D
:103820002325642046616E2053706565643A00006C
:10383000302052504D0000002325642046616E2048
:1038400043757272656E743A0000000030206D415D
:10385000000000008800001035350000944201008F
:1038600064400100840000109A0300102DE9F04F1D
:1038700091B0044620680F2804D01D287ED0262849
:103880007DD108E24FF47F0005F0A9FA4FF032092C
:1038900009F104034FF443724946142004F0C4FBB9
:1038A00040F2A91909F104034FF443724946142068
:1038B00004F0BAFB41F20821606808F099FC10900E
:1038C000FE490968B1F9300001F0F7FB8346FC4975
:1038D00001F04BFB824601F00AFC07463A460B46D4
:1038E000F8A168460EF028FD6946109807F01FFF02
:1038F00041F20921606808F07BFC1090EF490968EB
:10390000B1F9320001F0D9FB8346ED4901F02DFBFE
:10391000824601F0ECFB07463A460B46E9A16846B1
:103920000EF00AFD6946109807F001FF41F20A21E6
:10393000606808F05DFC1090E0480068E3A1026A4E
:1039400068460EF0F9FC6946109807F0F0FE41F267
:103950000B21606808F04CFC1090D8490968B1F957
:10396000340001F0B3FB0746DB4ADC4B01F033FBCC
:10397000824652460B46D3A1684601E03DE0B2E2E2
:103980000EF0DAFC6946109807F0D1FE41F20C21E6
:10399000606808F02DFC1090C8480068B0F9482015
:1039A000CFA168460EF0C8FC6946109807F0BFFE2C
:1039B00041F20F21606808F01BFC1090BF480068BE
:1039C000B0F94A20C6A168460EF0B6FC69461098C8
:1039D00007F0ADFE41F21021606808F009FC10907C
:1039E000B6480068B0F91420BFA168460EF0A4FCE8
:1039F0006946109807F09BFE79E241F20121606868
:103A000008F0F6FB1090BA49109807F079FEB94813
:103A10000268521CB8A168460EF08EFC69461098E8
:103A200007F085FE41F20221606808F0E1FB10908A
:103A3000BAA1109807F07BFE0C21109807F0A1FEA8
:103A4000AB49109807F05CFE41F20321606808F072
:103A5000CFFB10900C21109807F093FEA44910980A
:103A600007F04EFEB1A1109807F061FE41F204216B
:103A7000606808F0BDFB10900C21109807F081FEE3
:103A80009B49109807F03CFEACA1109807F04FFE40
:103A900041F20521606808F0ABFB10900C211098F2
:103AA00007F06FFE9249109807F02AFEA7A1109820
:103AB00007F03DFE41F20721606808F099FB109085
:103AC0000C21109807F05DFE8949109807F018FE48
:103AD000A2A1109807F02BFE41F20821606808F0BF
:103AE00087FB10908249109807F00AFE0C2110986D
:103AF00007F047FE9CA1109807F019FE41F209213A
:103B0000606808F075FB10907949109807F0F8FD8F
:103B10000C21109807F035FE95A1109807F007FECC
:103B200041F20A21606808F063FB10907049109818
:103B300007F0E6FD0C21109807F023FE00211098F5
:103B400007F034FE8CA1109807F0F1FD41F20B2133
:103B5000606808F04DFB10906549109807F0D0FDA3
:103B60000C21109807F00DFE85A1109807F0DFFDDD
:103B700041F20C21606808F03BFB10905C49109802
:103B800007F0BEFD0C21109807F0FBFD7EA11098F8
:103B900007F0CDFD41F20D21606808F029FB10907F
:103BA0007CA1109807F0C3FD5149109807F0A8FDBB
:103BB0000C21109807F0E5FD41F20E21606808F035
:103BC00017FB10900C21109807F0DBFD4849109866
:103BD00007F096FD72A1109807F0A9FD41F20F21A0
:103BE000606808F005FB10904149109807F088FDC7
:103BF0000C21109807F0C5FD6DA1109807F097FDF6
:103C000041F21021606808F0F3FA10900C2110982E
:103C100007F0B7FD3649109807F072FD67A11098BC
:103C200007F085FD41F21121606808F0E1FA10907B
:103C300063A1109801F00DFE2D49109801F0ECFDE4
:103C400041F21221606808F0D3FA109028491098C8
:103C500001F0E2FD5AA1109801F0FBFD41F21321A1
:103C6000606808F0C5FA10902149109801F0D4FD61
:103C700055A1109801F0EDFD41F21421606808F0A3
:103C8000B7FA10901A49109801F0C6FD4CA110988F
:103C900001F0DFFD2BE1A06808F0D9FA0646E568DF
:103CA00041F21221701A8E4204D004DC012E03D09E
:103CB000022E8DE0C1E091E095E000008C00001044
:103CC000CDCCCC3D25332E316620560025332E3108
:103CD00066206D41000000009A9999999999B93F21
:103CE00025642052504D0000256420430000000050
:103CF0000814020090000010506C6174666F726DC1
:103D00002043202F20536C6F742025643A20506F7D
:103D100077657220537570706C79000044432056AB
:103D20006F6C74616765203234563A0044562056F1
:103D30006F6C74616765202D35563A0044432056F8
:103D40006F6C746167652035563A00004375727276
:103D5000656E74203234563A0000000046616E20D1
:103D60005370656564313A0032342E3220560000BB
:103D70002D352E3120560000313235206D410000A6
:103D8000352E312056000000323030302052504D58
:103D90000000000046616E205370656564323A0091
:103DA000496E7465726E616C2054656D7000000020
:103DB000313930302052504D0000000032370000C1
:103DC0004E6F726D616C00005761726E696E6700B4
:103DD0000AD0A6F59050113812D112E0012848D02F
:103DE00002287ED161E000BF012D02D0022D06D154
:103DF00000E004E00021606804F0D2F800BF00BFDA
:103E00006FE0012D02D0022D15D100E013E0142245
:103E100046A1684601F05AF80023484960680A68DC
:103E2000694600F00CFA1090109808F0CFFC10983A
:103E300004F0E8F800BF00BF53E0012D02D0022DCE
:103E400015D100E013E014223DA1684601F03EF8D0
:103E500001233A4960680A68694600F0F0F9109059
:103E6000109808F0B3FC109804F0CCF800BF00BF25
:103E700037E0012D02D0022D15D100E013E014220D
:103E800033A1684601F022F802232C4960680A68D1
:103E9000694600F0D4F91090109808F097FC10983B
:103EA00004F0B0F800BF00BF1BE0012D02D0022DCE
:103EB00015D100E013E0142229A1684601F006F8AC
:103EC00003231E4960680A68694600F0B8F910903B
:103ED000109808F07BFC109804F094F800BF00BF25
:103EE00000BF00BF03E0204608F028F800BF00BF75
:103EF00011B0BDE8F08F7CB504460D460F48056053
:103F00000068102803D119481949086002E01948CF
:103F100017490860002000902346174A1521019098
:103F2000164803F08DFC064630467CBD44432056BF
:103F30006F6C746167652032345600009000001089
:103F4000444320566F6C74616765202D3556000020
:103F5000444320566F6C746167652035560000003D
:103F600043757272656E742032345600E803001097
:103F70008C000010340400106D380000C4440100AF
:103F80002DE9F041044620681D2802D026287DD165
:103F900027E16768D749384602F04DF914213846C1
:103FA00002F0B7F940F60101606808F021F9074610
:103FB000D149384607F0A4FB0E21384607F0E1FB53
:103FC000CEA1384607F0B3FB40F60201606808F066
:103FD0000FF907460C21384607F0D3FBCB4938468A
:103FE00007F08EFBCAA1384607F0A1FB40F603019B
:103FF000606808F0FDF807460D21384607F0C1FB60
:10400000C249384607F07CFBC5A1384607F08FFB54
:1040100040F60401606808F0EBF807460D213846C9
:1040200007F0AFFBB949384607F06AFBBEA1384636
:1040300007F07DFB40F60501606808F0D9F80746F7
:104040000D21384607F09DFBB049384607F058FB74
:10405000B6A1384607F06BFB40F60601606808F031
:10406000C7F807460D21384607F08BFBA7493846AD
:1040700007F046FBAEA1384607F059FB40F60701B2
:10408000606808F0B5F807460C2100E0D0E038463B
:1040900007F077FB9D49384607F032FBA6A138466A
:1040A00007F045FB40F60801606808F0A1F80746F4
:1040B0000C21384607F065FB9449384607F020FB91
:1040C0009EA1384607F033FB40F60901606808F00E
:1040D0008FF807468D49384607F012FB0C21384609
:1040E00007F04FFB96A1384607F021FB40F60A0186
:1040F000606808F07DF807468449384607F000FB01
:104100000C21384607F03DFB8EA1384607F00FFB27
:1041100040F60B01606808F06BF807467B493846AB
:1041200007F0EEFA0C21384607F02BFB86A1384643
:1041300007F0FDFA40F60C01606808F059F80746F0
:104140000C21384607F01DFB7049384607F0D8FAB5
:104150007EA1384607F0EBFA40F60D01606808F0E2
:1041600047F807466949384607F0CAFA0C2138462D
:1041700007F007FB78A1384607F0D9FA40F60E01A0
:10418000606808F035F807460C21384607F0F9FA60
:104190005E49384607F0B4FA6CA1384607F0C7FA12
:1041A00040F60F01606808F023F807465749384683
:1041B00007F0A6FA0C21384607F0E3FA66A1384664
:1041C00007F0B5FA40F61101606808F011F80746EB
:1041D00065A1384601F03DFB4C49384601F01CFB17
:1041E0002AE0A06808F033F80546E668A5F5006007
:1041F000113802D0022819D10CE0012E02D0022E73
:1042000006D100E004E00021606803F0C9FE00BFB1
:1042100000BF0BE0012E04D0022E03D0052E03D1E7
:1042200001E001E000E000BF00BF00BF00BF03E00D
:10423000204607F083FE00BF00BFBDE8F0812DE9F6
:10424000F04786B08246884614461D4607F0CAFFEE
:104250008146002000904B46444A11210190444879
:1042600003F0EEFA06460521304601F08DFF414984
:10427000304601F0E0FF40A1304602F027F81E2151
:10428000304602F046F84048005D012803D03E4821
:10429000005D022820D1FDB91E20022140F6130244
:1042A0000023CDE90321CDE900610293059050235D
:1042B00064222821F02007F04AF8074613493846BF
:1042C00007F0F1F8002231A1384607F007F9012282
:1042D0002FA1384607F002F940F60101304607F0F9
:1042E00087FF07464146384607F021FA304606B0B8
:1042F000BDE8F0873CA10100081402004F757470FE
:10430000757420506F7765720000000010D60100B0
:1043100043757272656E742056616C75653A000063
:10432000484948493A00000048493A004C4F3A0091
:104330004C4F4C4F3A00000030000000313030004C
:10434000383000003330000031300000416C6172C1
:104350006D456E61626C6500416C61726D4469739C
:1043600061626C65000000004F4B0000813F00005F
:1043700010470100D4B10100416E616C6F6720509D
:10438000726F7065727479006C0300106D570000D5
:1043900064426D002DE9F04192B0044620680F2878
:1043A00004D01D281BD026287ED129E34FF47F009E
:1043B00004F015FD4FF0320808F104034FF4437286
:1043C0004146142003F030FE40F2A91808F104031E
:1043D0004FF443724146142003F026FE0FE340F6EB
:1043E0000111606807F004FF0646FE49304607F0F9
:1043F00087F9FD480268521CFCA102A80DF09CFF41
:1044000002A9304607F093F940F60211606807F000
:10441000EFFE0646FCA1304607F089F90C21304634
:1044200007F0AFF9EF49304607F06AF940F603119B
:10443000606807F0DDFE06460C21304607F0A1F962
:10444000E849304607F05CF9F3A1304607F06FF910
:1044500040F60411606807F0CBFE06460C2130469A
:1044600007F08FF9DF49304607F04AF9EEA13046F0
:1044700007F05DF940F60511606807F0B9FE0646E1
:104480000C21304607F07DF9D649304607F038F95F
:10449000E9A1304607F04BF940F60711606807F0D4
:1044A000A7FE06460C2100E0F8E3304607F069F964
:1044B000CC49304607F024F9E3A1304607F037F93C
:1044C00040F60811606807F093FE0646C54930467D
:1044D00007F016F90C21304607F053F9DEA13046FB
:1044E00007F025F940F60911606807F081FE0646DD
:1044F000BC49304607F004F90C21304607F041F979
:10450000D7A1304607F013F940F60A11606807F0AA
:104510006FFE0646B349304607F0F2F80C213046EC
:1045200007F02FF90021304607F040F9CEA13046C0
:1045300007F0FDF840F60B11606807F059FE0646DB
:10454000A849304607F0DCF80C21304607F019F98D
:10455000C7A1304607F0EBF840F60421606807F089
:1045600047FE06469F49304601F056F9C2A1304643
:1045700001F06FF940F60521606807F039FE064644
:10458000BEA1304601F065F99649304601F044F984
:1045900040F60621606807F02BFE0646B7A13046BC
:1045A00001F057F98F49304601F036F940F60721FE
:1045B000606807F01DFE06468A49304601F02CF976
:1045C000B0A1304601F045F940F60121606807F0DE
:1045D0000FFE06468349304601F01EF9ABA1304676
:1045E00001F037F9AB48006801287DD140F60C1185
:1045F000606807F0FDFD06467A49304607F080F80E
:104600000C21304607F0BDF8A3A1304607F08FF823
:1046100040F60D11606807F0EBFD06467149304623
:1046200007F06EF80C21304607F0ABF89DA130463C
:1046300007F07DF840F60E11606807F0D9FD0646D8
:104640006849304607F05CF80C21304607F099F8CD
:1046500097A1304607F06BF840F60F11606807F03D
:10466000C7FD06465F49304607F04AF80C21304640
:1046700007F087F891A1304607F059F84FF411611F
:10468000606807F0B5FD06465649304607F038F831
:104690000C21304607F075F88AA1304607F047F83C
:1046A00040F61111606807F0A3FD06464D493046FB
:1046B00007F026F80C21304607F063F883A1304656
:1046C00007F035F840F60821606807F091FD0646CE
:1046D0004449304601F0A0F86AA1304601F0B9F82B
:1046E00040F60921606800E018E007F081FD064609
:1046F0003C49304601F090F862A1304601F0A9F83B
:1047000040F60A21606807F073FD064635493046D9
:1047100001F082F85BA1304601F09BF85D4800682B
:1047200002285DD140F61211606807F061FD06466F
:104730002C49304606F0E4FF0C21304607F021F802
:1047400064A1304606F0F3FF40F61311606807F0ED
:104750004FFD06462349304606F0D2FF0C21304675
:1047600007F00FF85FA1304606F0E1FF40F61411A4
:10477000606807F03DFD06461A49304606F0C0FF66
:104780000C21304606F0FDFF58A1304606F0CFFF61
:1047900040F61511606807F02BFD064611493046BA
:1047A00006F0AEFF0C21304606F0EBFF54A1304678
:1047B00006F0BDFF40F61611606807F019FD0646C9
:1047C0000849304606F09CFF0C21304606F0D9FF20
:1047D0004EA1304606F0ABFF40F6171160689DE031
:1047E0000DE100000814020098000010506C617484
:1047F000666F726D2043202F20536C6F74202564E8
:104800003A204544464100004E6F6D696E616C2050
:10481000506F7765723A00004F757470757420534D
:1048200077697463683A0000496E70757420506F40
:104830007765723A000000004F75747075742050EF
:104840006F7765723A0000004269617320437572A8
:1048500072656E743A0000003131206D570000001F
:1048600031322064426D000031332064426D00001B
:1048700035302E35206D41004F4E00005761726E6D
:10488000696E67004E6F726D616C00004D6F7265EE
:104890002E2E2E0094000010544543204375727252
:1048A000656E74004C617365722054656D70000014
:1048B0004C6173657220506F776572003130206DE6
:1048C00041000000313520430000000032302064F8
:1048D000426D0000506F7765722053657474696E85
:1048E000673A000048656C70000000005265737400
:1048F0006F72652053657474696E673A000000003A
:1049000053657269616C4E756D3A0000486172645E
:1049100077617265205265763A00000007F068FC06
:104920000646FD49304606F0EBFE0C21304606F007
:1049300028FFFAA1304606F0FAFE40F6181160682A
:1049400007F056FC0646F449304606F0D9FE0C2125
:10495000304606F016FFF5A1304606F0E8FE40F6B8
:104960001911606807F044FC0646EB49304606F032
:10497000C7FE0C21304606F004FFEFA1304606F0DA
:10498000D6FE40F61A11606807F032FC0646E2498E
:10499000304606F0B5FE0C21304606F0F2FEE8A1E6
:1049A000304606F0C4FE40F60B21606807F020FC9C
:1049B0000646D949304600F02FFFE6A1304600F008
:1049C00048FF40F60C21606807F012FC0646D24909
:1049D000304600F021FFAFF24811304600F039FFB9
:1049E00040F60D21606807F003FC0646CA493046D0
:1049F00000F012FFAFF26811304600F02AFF70E1BC
:104A0000A06807F024FC0746E56840F60521781AFF
:104A10008F4272D014DC40F60221A7EB01008F42D6
:104A200045D008DC012F13D0022F12D0A7F520604B
:104A300001381AD11AE001285AD00228F9D179E0B8
:104A4000072812D2DFE800F0119BB7D3F2F0EF0095
:104A500000BF012D02D0022D06D100E004E00021AC
:104A6000606803F09DFA00BF00BF34E1012D02D061
:104A7000022D1AD100E018E00021606803F090FADE
:104A80000120B6490860002000900190B448B54A62
:104A90001A210368B44802F0D3FE0646304607F0F8
:104AA00095FE304603F0AEFA00BF00BF13E1012DC2
:104AB00002D0022D1AD100E018E00021606803F056
:104AC0006FFA0220A5490860002000900190A448D8
:104AD000A44A10210368A54802F0B2FE06463046FB
:104AE00007F074FE304603F08DFA00BF00BFF2E01D
:104AF000012D03D0022D1BD101E024E018E000219C
:104B0000606803F04DFA012094490860002000908D
:104B100001909348934A1A210368934802F090FE4B
:104B20000646304607F052FE304603F06BFA00BFEF
:104B300000BFD0E0012D02D0022D02D100E000E044
:104B400000BF00BFC7E0012D02D0022D15D100E04B
:104B500013E0142286A102A800F0B8F900238849C6
:104B600060680A6802A9FFF76AFB0646304607F04C
:104B70002DFE304603F046FA00BF00BFABE0012D2A
:104B800002D0022D15D100E013E0142278A102A872
:104B900000F09CF901237A4960680A6802A9FFF7CE
:104BA0004EFB0646304607F011FE304603F02AFA67
:104BB00000BF00BF8FE0012D02D0022D15D100E013
:104BC00013E014226AA102A800F080F902236C49C4
:104BD00060680A6802A9FFF732FB0646304607F014
:104BE000F5FD304603F00EFA00BF00BF73E0012D63
:104BF00002D0022D15D100E013E014225CA102A81E
:104C000000F064F903235E4960680A6802A9FFF7AF
:104C100016FB0646304607F0D9FD304603F0F2F9A0
:104C200000BF00BF57E03AE01CE0FFE7012D02D0D3
:104C3000022D15D100E013E014224DA102A800F0CE
:104C400045F904234E4960680A6802A9FFF7F7FA9C
:104C50000646304607F0BAFD304603F0D3F900BFF0
:104C600000BF38E0012D02D0022D15D100E013E085
:104C700014223FA102A800F029F9052340496068E9
:104C80000A6802A9FFF7DBFA0646304607F09EFDE8
:104C9000304603F0B7F900BF00BF1CE01DE0012D56
:104CA00002D0022D15D100E013E0142230A102A899
:104CB00000F00CF90623324960680A6802A9FFF780
:104CC000BEFA0646304607F081FD304603F09AF9F9
:104CD00000BF00BF00BF00BF03E0204607F02EF971
:104CE00000BF00BF12B0BDE8F0817CB504460D46A0
:104CF000234805601A480460002000902346194AA2
:104D0000112101901F4802F09BFD06460020134927
:104D1000086030467CBD0000081402004669726DD0
:104D200077617265205265763A0000003230313387
:104D3000313132353A00000056312E30000000008B
:104D4000465731333031323131302D313130323A12
:104D500000000000323064426D000000940000103A
:104D60009C00001095430000C84A0100A04D0100BE
:104D70004F757470757420506F7765720000000075
:104D800098000010EC4801000A204B4908810C20D3
:104D900048810D2088810E20C8810F2008821020B4
:104DA0004882112088821220C8821320088370470D
:104DB000002022E000F10A01404A42F82010891C3C
:104DC0003F4A42F8201021310AB23C49103121F803
:104DD000102000F132010AB23949103121F81020B7
:104DE00000F13201354A183242F82010C0F13C027D
:104DF0003349183141F82020401C0428DADBC8214F
:104E00002E4A203A91824FF496712D4A203A91828F
:104E100089002A4A203AA2F84810294A203AA2F8E2
:104E2000481040F2DC51254A203AA2F84A10244AA0
:104E3000203AA2F84A107047002009E04FF4966229
:104E4000204921F810200A22103121F81020401C9E
:104E50000828F3DB704700202BE0411C1A4A42F877
:104E600020100A221849103121F8102040F21E5259
:104E7000083141F82020411C134A303242F82010FA
:104E800002221149403121F810200122083121F875
:104E900010200522083121F810200122103121F8BC
:104EA0001020103121F810200022183121F8102094
:104EB000401C0428D1DB7047800300100804001058
:104EC00054040010C80300108804001010B5431AE1
:104ED000934209D28318881803E010F8011D03F8E3
:104EE000011D521EF9D210BD40EA01039B0703D0F9
:104EF00009E008C9121F08C0042AFAD203E011F819
:104F0000013B00F8013B521EF9D210BDD2B201E0C4
:104F100000F8012B491EFBD270470022F6E710B5BE
:104F200013460A4604461946FFF7F0FF204610BD17
:104F3000421C10F8011B0029FBD1801A704730B5C4
:104F400004460020034600E05B1C934203D2E05C71
:104F5000CD5C401BF8D030BD034611F8012B00F8A2
:104F6000012B002AF9D11846704780EA010210B5DA
:104F700002F00043400026D04A0023D04FEA1061DF
:104F800001EB1261C0F35600C2F3560240F4000078
:104F900042F40002A0FB0220A1F17F014FEA004091
:104FA000140401D000F1010050EA124001D4400085
:104FB000491EC2B20C0604EBD010401C4008802AE7
:104FC00002D003E0002010BD20F00100002900DA2B
:104FD0000020184310BD2DE9FE4F81EA030404F0C0
:104FE000004421F0004100944FF0000B23F00043F7
:104FF00050EA010402D052EA030404D10020014621
:1050000003B0BDE8F08FC3F30A54C1F30A552C4432
:10501000A4F2F3340194A0FB0254C1F3130141F450
:105020008011C3F3130343F4801301FB024400FB1C
:10503000034E840A970A44EA815447EA8357A4FB43
:10504000076802958D0A05FB07854FEA932C04FB40
:105050000C542705029D4FEA065847EA1637B5EB70
:1050600008056EEB070C870E920E47EA811742EA9D
:105070008312A7FB0201B6EB0B0164EB00042B0DBE
:1050800043EA0C335E1844EB1C50DA465146E7FB0A
:105090000201C5F313044FEA0B3343EA14534FEAFA
:1050A0000432019C43EA0603A4F10C040294009C20
:1050B000CDE900B400F0B8F8A2E7C10F80EAE070D3
:1050C0000844CA079623002100F074B80EB5C10F3A
:1050D00080EAE0700844CA07002140F233438DE8BB
:1050E0000E000A460B4600F09FF803B000BD00F02A
:1050F000004230F000400AD0C10D01F56071C0F3EC
:10510000160042EA0151C2084007114370470020CF
:105110000146704730B50B4601460020202201248D
:1051200009E021FA02F59D4205D303FA02F5491B75
:1051300004FA02F52844151EA2F10102F1DC30BD8B
:105140002DE9F05F0546002092469B4688460646BC
:10515000814640241BE0284641464746224600F04F
:1051600018FA53465A46C01A914110D311461846B0
:10517000224600F0FFF92D1A67EB01084F46224640
:105180000120002100F0F6F917EB00094E41201E26
:10519000A4F10104DFDC484631462A464346BDE817
:1051A000F09F0029A8BF7047401C490008BF20F0AD
:1051B0000100704710B4B0FA80FC00FA0CF050EA1D
:1051C000010404BF10BC704749B1CCF1200421FA9E
:1051D00004F411FA0CF118BF012121430843A3EB99
:1051E0000C01CB1D0106000A002BBEBF002010BC25
:1051F000704700EBC35010440029A4BF10BC704797
:10520000401C490008BF20F0010010BC704710B5D9
:10521000002B08DA401C41F1000192185B411A434F
:1052200001D120F0010010BD2DE9F04D92469B46C2
:1052300011B1B1FA81F202E0B0FA80F22032904668
:1052400000F098F904460F4640EA0A0041EA0B01D3
:1052500053465A46084303D120463946BDE8F08DEF
:10526000114653EA010015D0C8F14002504600F043
:1052700090F905460E4650465946424600F07AF9E6
:10528000084301D0012000E00020054346EAE07613
:105290002C4337430A984FEA4453A0EB08004FEAE7
:1052A000D4240A304FF0000244EA47544FEAD7258D
:1052B00002D500200146D1E7010510196941DDE959
:1052C000084500196941BDE8F04DA0E72DE9FE4F02
:1052D000804681EA0300C00F0C46009021F0004197
:1052E00023F00045B8EB0200A94105D24046214613
:1052F00090461C460B46024623F00040104304D162
:105300004046214603B0BDE8F08F270DC7F30A00E1
:10531000C3F30A510290401A0190402866DAC3F3A1
:10532000130040F4801B0098924620B10023D2EB7A
:10533000030A63EB0B0B01985946C0F1400250463B
:1053400000F018F906460D4650465946019A00F0FD
:1053500030F910EB08006141002487EA115284EA19
:10536000E7731A433BD0009A3AB3019A012A4FEAF5
:10537000075210DC001B61EB02014FF0004202EA11
:105380000752CDE90042001C41F5801132462B4600
:10539000FFF74AFFB6E7001B61EB0201001C41F575
:1053A000801300185B412018A2F5001747EB03019A
:1053B00040EAD570B6196D4111E06D084FEA360626
:1053C00045EAC0754FEA0752001B61EB0201001C61
:1053D00041F5801149084FEA300000195141324629
:1053E0002B4603B0BDE8F04FFFF711BF0098012234
:1053F00040000023D0EB020263EBE07300982146EB
:105400004FEAE074B8EB000061EB0401E9E783F0D8
:1054100000435BE781F0004158E72DE9F04D81EA58
:10542000030404F0004B21F0004514464FF0000A3D
:1054300023F0004150EA050220D054EA01021DD0B9
:10544000C5F30A570246C5F31303C1F31300C1F3B2
:105450000A5640F4801543F48013A7EB0608101B8E
:10546000D64608F2FD3873EB050002D308F10108B7
:1054700001E092185B41B8F1000F03DA0020014609
:10548000BDE8F08D00204FF48011064684460EE002
:10549000171B73EB050705D3121B63EB05030643CC
:1054A0004CEA010C49084FEA300092185B4150EA7F
:1054B0000107EDD152EA030012D082EA040083EA28
:1054C0000501084303D100224FF0004308E0101B00
:1054D000AB4102D20122002302E06FF0010253101F
:1054E0001AEB06004CEB085110EB0A0041EB0B01E4
:1054F000BDE8F04DFFF78BBEC1F30A52C1F31301B3
:1055000040F2FF3341F480119A4202DA0020014652
:10551000704740F233439A42A2F2334202DC5242D5
:1055200000F037B800F026B830B5002904DB4FF0A2
:105530000044404264EB0101002B04DB4FF00044C7
:10554000524264EB0303994208BF904230BD000011
:10555000064C074D06E0E06840F0010394E80700C0
:1055600098471034AC42F6D3FAF7C0FD54B60200A7
:1055700084B60200202A04DB203A00FA02F100205F
:1055800070479140C2F1200320FA03F31943904081
:105590007047202A04DB203A21FA02F000217047EC
:1055A00021FA02F3D040C2F120029140084319468B
:1055B0007047202A06DBCB17203A41FA02F043EA73
:1055C000E07306E041FA02F3D040C2F120029140BC
:1055D00008431946704770B501EB020410F8015BEF
:1055E00015F0070301D110F8013B2A1106D110F87C
:1055F000012B03E010F8016B01F8016B5B1EF9D180
:105600002B0705D40023521E0FD401F8013BFAE703
:1056100010F8013B02F10202A1EB030303E013F8CF
:10562000015B01F8015B521EF9D5A142D6D30020DF
:1056300070BD002800DC40427047000038B5456866
:1056400004460146284606F0E9F800282AD02068DA
:10565000304A0F2819D006DC0B2824D00C2810D093
:105660000E2851D12FE0112802D028284CD145E036
:105670009268002A16D02146284601B0BDE8304085
:105680001047214628465268F7E7284601F0BEFE3B
:105690000090406E0468684601F022FF002C01D0A3
:1056A0002846A04738BD284601F0B0FE009068307B
:1056B00001F0ECFD009803216C3001F0F5FD684627
:1056C00001F00EFF20E0E168486809680D2902D06A
:1056D000202913D105E0002810DD28460BF034F80E
:1056E00006E0002804DD2846BDE838400BF02CB861
:1056F0002846BDE8384002210BF03CB8E06818B9F4
:105700000021284600F09CF82046BDE8384006F00D
:1057100015BC000018010010F0B5044685B0806982
:10572000B4F90850668A0027CDE90265CDE9001773
:105730000490B4F90C00B4F91060C118B4F90A006F
:10574000B4F90E50104433462A4600F007F80546D7
:10575000616800F07EF805B02846F0BD2DE9F04FF5
:1057600085B01F46DDE911B4DDE90E569046894645
:10577000824602F023FE4C341548CDE90204CDE9FF
:1057800000563B4642464946504606F023FB04007D
:1057900018D001F03BFE10225946049006F0C6F9DD
:1057A000049830220B493430FFF790FB094D0499DF
:1057B0000C3D2868486604A801F092FE28684168FC
:1057C0002046884703F032FF05B02046BDE8F08F41
:1057D0003D56000024010010F8B515460C460600A1
:1057E00012D002F0EBFD304601F010FE0090032CC9
:1057F00002D200EB84004563684601F071FE30463A
:1058000006F07CFF03F012FFF8BD000001490862BA
:10581000704700002401001038B50D4604000ED07A
:1058200002F0CCFD204601F0F1FD00904565684690
:1058300001F056FE204606F061FF03F0F7FE38BD8A
:105840004FF480720029114601D006F076B805F0B9
:10585000C4BF2DE9FF410E4605004FF0010421D0E1
:1058600002F0ACFD284601F0D1FD0190876E01A841
:10587000009701F035FE3146684604F0C3FD78B16B
:1058800000980024B84208D0284601F0BFFD0190DE
:105890000099816601A801F023FE284606F02EFF3C
:1058A00003F0C4FE04B02046BDE8F0812DE9FC47BA
:1058B0000E465FEA00097FD002F080FD484601F005
:1058C000A5FD009090F85470D0F85880456BC46CDA
:1058D000684601F005FEB8F1000F04D03146484695
:1058E0004246904761E0122E18D006DC082E43D0C5
:1058F000102E3CD0112E06D112E0132E21D01D2ED9
:1059000043D01E2E3DD0202E4FDB17B1484608F065
:10591000FAFAB1B248460AF017FD60B3611C27E0FD
:105920004DB3284601F072FD05462146019003F073
:1059300059FD4419204603F003FD01462346012288
:1059400010E0C5B1284601F061FD054621460190F1
:1059500003F048FD4419204603F0F2FC01462346BB
:105960004FF0FF32484608F053F901A81BE0611ED2
:10597000484600F0EBF918E0BCB1611E484600F063
:10598000E5F9484608F0BFFA0FE0484601F03EFD51
:105990000090012F12D0012180F854102146484672
:1059A00000F0D4F9684601F09BFD484606F0A6FEDB
:1059B00000E001E003F03AFEBDE8FC87002180F83A
:1059C0005410EFE7FEB544680546204607F0B2FCE8
:1059D00006462946204605F021FF002834D02868D5
:1059E0000E283DD004DC0B282FD00C284AD116E01D
:1059F0000F2825D0A0F58070133843D1204607F03A
:105A000021F8204600210AF0D4FF204601F0FEFCD8
:105A10000190C06F002106F0EDFF01A81DE0E868CD
:105A200060B1017A29B10168204600F0A1F8012196
:105A300000E00221204606F027FF23E00321F9E7DA
:105A4000012120460AF0B5FFFEBD204601F0DEFC34
:105A50000090343001F01AFC684601F041FD11E07D
:105A600086B1E868416800290CDD0168092909D080
:105A70000A2907D00D2905D01B2903D02046FFF79E
:105A800015FFFEBD284606F059FAFEBDF0B587B0F9
:105A900004460DF1080CD4E90567B0F90850408AB6
:105AA000ACE8E1000020CDE90010B4F90C00B4F935
:105AB0001060C118B4F90A00B4F90E50104433460E
:105AC0002A4600F009F8050002D0618A00F029F9A1
:105AD00007B02846F0BD00002DE9FF5F1F46DDE955
